:100000000C9435010C9466010C9466010C94660105
:100010000C9466010C9466010C9466010C946601C4
:100020000C9466010C9466010C9466010C946601B4
:100030000C9466010C9466010C9466010C946601A4
:100040000C9466010C9466010C9466010C94660194
:100050000C9466010C9466010C9466010C945C058A
:100060000C9466010C9426050C94FC040C94660117
:100070000C9466010C9466010C9466010C94660164
:100080000C9466010C9466010C9466010C94660154
:100090000C9466010C9466010C9466010C94660144
:1000A0000C9466010C9466010C9466010C94660134
:1000B0000C9466010C9466010C9466010C94660124
:1000C0000C9466010C9466010C9466010C94660114
:1000D0000C9466010C9466010C9466010C94660104
:1000E0000C9466010C94FF020C94C8020C94B801A5
:1000F0000C94A6050C94C0020C94D5020C94A40197
:100100000C94F1020C94C4020C94E7020C94950137
:100110000C94FA020C94CF020C94E3020C94BA02F1
:100120000C94F5020C9468010C94DF020C94ED021F
:100130000C944B020C94CC020C94FB020C94C60160
:100140000C94FE010C94D902000021002400270029
:100150002A002D00300033000101000004010701D6
:100160000A0100002200250028002B002E0031008B
:10017000340002010000050108010B01000020000D
:100180002300260029002C002F003200000100006F
:10019000030106010901050505050705080808080A
:1001A000020202020A0A080804040404010101010F
:1001B000010101010303030303030303040707070A
:1001C0000C0C0C0C0C0C0C0C0202020206060606AF
:1001D000060606060B0B0B0B0B0B0B0B010210207C
:1001E000200808102040102040800201020108046D
:1001F0000201010204081020408080402010080401
:100200000201800402018040201008040201080459
:10021000020101020408102040800102040810209D
:10022000408000000A0B02090C0D0E0807030401B0
:1002300000000000000000000000000000000000BE
:10024000000000000000000000000000000012118B
:10025000100000000000000000000000000000008E
:100260000000000000000000A60511241FBECFEF13
:10027000D1E2DEBFCDBF00E00CBF12E0A0E0B2E0F3
:10028000E6EBF3E100E00BBF02C007900D92A63150
:10029000B107D9F722E0A6E1B2E001C01D92A33D6B
:1002A000B207E1F711E0C5E3D1E000E006C0219715
:1002B0000109802FFE010E94D109C433D10780E0DB
:1002C0000807A9F70E94DB050C94D9090C940000DB
:1002D000AF92BF92CF92DF92EF92FF920F931F9354
:1002E000CF93DF936C017B018B01040F151FEB0192
:1002F0005E01AE18BF08C017D10759F06991D60149
:10030000ED91FC910190F081E02DC6011995892BAA
:1003100079F7C501DF91CF911F910F91FF90EF9079
:10032000DF90CF90BF90AF900895FC01538D448D26
:10033000252F30E0842F90E0821B930B541710F090
:10034000CF96089501970895FC01918D828D98179D
:1003500061F0A28DAE0FBF2FB11D5D968C91928D75
:100360009F5F9F73928F90E008958FEF9FEF0895A6
:10037000FC01918D828D981731F0828DE80FF11D6F
:10038000858D90E008958FEF9FEF0895FC01918D8A
:10039000228D892F90E0805C9F4F821B91098F7383
:1003A0009927089589E292E00E94C60121E0892BF5
:1003B00009F420E0822F0895FC01A48DA80FB92F25
:1003C000B11DA35ABF4F2C91848D90E001968F737D
:1003D0009927848FA689B7892C93A089B1898C919C
:1003E000837080648C93938D848D981306C00288EB
:1003F000F389E02D80818F7D80830895EF92FF92B5
:100400000F931F93CF93DF93EC0181E0888F9B8D37
:100410008C8D98131AC0E889F989808185FF15C0F1
:100420009FB7F894EE89FF896083E889F989808114
:100430008370806480839FBF81E090E0DF91CF91E3
:100440001F910F91FF90EF900895F62E0B8D10E005
:100450000F5F1F4F0F731127E02E8C8D8E110CC074
:100460000FB607FCFACFE889F989808185FFF5CFBF
:10047000CE010E94DC01F1CFEB8DEC0FFD2FF11DC1
:10048000E35AFF4FF0829FB7F8940B8FEA89FB89FC
:1004900080818062CFCFCF93DF93EC01888D88235A
:1004A000B9F0AA89BB89E889F9898C9185FD03C0D7
:1004B000808186FD0DC00FB607FCF7CF8C9185FFBC
:1004C000F2CF808185FFEDCFCE010E94DC01E9CF24
:1004D000DF91CF91089580E090E0892B29F00E9470
:1004E000D20181110E94000080E090E0892B49F048
:1004F00080E090E0892B29F00E94000081110E9489
:10050000000080E090E0892B49F080E090E0892BAA
:1005100029F00E94000081110E94000080E090E01C
:10052000892B49F080E090E0892B29F00E9400009F
:1005300081110C94000008958150823108F05AC056
:10054000E82FF0E08827E855FD4F8F4F0C94D10934
:10055000C802CC02BA02C002C402FA02CF02D5021B
:10056000D902DF02E302E702ED02F102FA02F5022C
:10057000FB02FF02809180008F77809380000895B6
:10058000809180008F7DF9CF80918000877FF5CFAB
:1005900084B58F7784BD089584B58F7DFBCF80911E
:1005A000B0008F778093B00008958091B0008F7D68
:1005B000F9CF809190008F7780939000089580917B
:1005C00090008F7DF9CF80919000877FF5CF80914B
:1005D000A0008F778093A00008958091A0008F7D68
:1005E000F9CF8091A000877FF5CF809120018F7790
:1005F000809320010895809120018F7DF9CF809113
:100600002001877FF5CFCF93DF93282F30E0F901CA
:10061000EE5DFD4F8491F901E452FE4FD491F90152
:10062000EA56FE4FC491CC23A1F081110E949C0296
:10063000EC2FF0E0EE0FFF1FE458FE4FA591B491B0
:10064000EC91ED2381E090E009F480E0DF91CF911F
:10065000089580E090E0FACF1F93CF93DF93282F87
:1006600030E0F901EE5DFD4F8491F901E452FE4F57
:10067000D491F901EA56FE4FC491CC23A9F0162F6C
:1006800081110E949C02EC2FF0E0EE0FFF1FEE594B
:10069000FE4FA591B4918FB7F894EC91111108C059
:1006A000D095DE23DC938FBFDF91CF911F9108950A
:1006B000DE2BF8CFCF93DF9390E0FC01E452FE4FA6
:1006C00024918A569E4FFC0184918823D1F090E0BA
:1006D000880F991FFC01E85BFE4FA591B491FC01C6
:1006E000EE59FE4FC591D49161110EC09FB7F89499
:1006F0008C91E22FE0958E238C932881E223E8836E
:100700009FBFDF91CF9108958FB7F894EC91E22BC2
:10071000EC938FBFF6CF3FB7F8948091170290917A
:100720001802A0911902B0911A0226B5A89B05C023
:100730002F3F19F00196A11DB11D3FBFBA2FA92F60
:10074000982F8827BC01CD01620F711D811D911D5D
:1007500042E0660F771F881F991F4A95D1F70895C9
:100760008F929F92AF92BF92CF92DF92EF92FF92C1
:100770004B015C010E948B036B017C010E948B0387
:100780006C197D098E099F09683E734081059105AA
:10079000A8F321E0821A9108A108B10888EEC80EDA
:1007A00083E0D81EE11CF11C81149104A104B10462
:1007B00029F7FF90EF90DF90CF90BF90AF909F9080
:1007C0008F900895EF92FF921F93CF93DF9361E094
:1007D0008091CC020E942C032FB7F89480912502BF
:1007E00090912602A0912702B09128022FBF40913C
:1007F000CE025091CF026091D0027091D102841745
:100800009507A607B70740F41092CE021092CF02C8
:100810001092D0021092D1022091D202211118C060
:100820004091CE025091CF026091D0027091D102DE
:10083000841B950BA60BB70B803D9740A105B10516
:1008400038F481E0DF91CF911F91FF90EF900895F0
:100850001092D2022FB7F89480912502909126022F
:10086000A0912702B09128022FBF8093CE029093CF
:10087000CF02A093D002B093D1021092CA0210927C
:10088000C9021092C8021092C7021092C60261E01B
:100890008091CC020E945A0360E08091CC020E94B9
:1008A0002C0364E170E080E090E00E94B003F894D3
:1008B00061E08091CC020E942C038BE990E00197CB
:1008C000F1F760E08091CC020E945A0310E081E0D1
:1008D000C0E0D0E0E82EF12C8091CC020E9403030E
:1008E0008E159F0519F4DF5FDF3FB1F78091CC02D1
:1008F0000E940303DF3FA1F0C43078F0C0FD0DC0BB
:10090000E12FE695E695E695F0E0EA53FD4F9081FC
:10091000990FD73008F590831F5FCF5FC535C9F6B3
:1009200078941832B8F04091CA022091C6028091A2
:10093000C702280F3327331F8091C802280F311DAB
:100940008091C902820F932F911D9927481719068C
:1009500009F477CF80E076CF9160DDCF8F929F92C0
:10096000AF92BF920F931F93CF93DF93CDB7DEB7B4
:10097000A1970FB6F894DEBF0FBECDBF19A24230CB
:1009800008F44AE08E010F5D1F4F842E912CB12C8C
:10099000A12CA50194010E94AF09E62FB901CA015B
:1009A000EA3044F5E05DD801EE938D01232B242B32
:1009B000252B79F790E080E0109769F0FD01019018
:1009C0000020E9F73197AF014A1B5B0BBD0189E2BB
:1009D00092E00E946801A1960FB6F894DEBF0FBEA8
:1009E000CDBFDF91CF911F910F91BF90AF909F909E
:1009F0008F900895E95CD7CF1F920F920FB60F9298
:100A000011240BB60F922F933F934F935F936F93E5
:100A10007F938F939F93AF93BF93EF93FF9389E25D
:100A200092E00E94DC01FF91EF91BF91AF919F9105
:100A30008F917F916F915F914F913F912F910F9087
:100A40000BBE0F900FBE0F901F9018951F920F9224
:100A50000FB60F9211240BB60F922F938F939F9383
:100A6000EF93FF93E0913902F0913A028081E09197
:100A70003F02F091400282FD1DC0908180914202B0
:100A80008F5F8F7320914302821741F0E091420201
:100A9000F0E0E75DFD4F958F80934202FF91EF916B
:100AA0009F918F912F910F900BBE0F900FBE0F90C3
:100AB0001F9018958081F2CF1F920F920FB60F9260
:100AC00011242F933F938F939F93AF93BF93809164
:100AD000250290912602A0912702B0912802309120
:100AE000160223E0230F2D3758F50196A11DB11DE5
:100AF000209316028093250290932602A09327024A
:100B0000B09328028091170290911802A0911902C7
:100B1000B0911A020196A11DB11D80931702909306
:100B20001802A0931902B0931A02BF91AF919F913E
:100B30008F913F912F910F900FBE0F901F9018959E
:100B400026E8230F0296A11DB11DD2CFE9E2F2E003
:100B50001382128288EE93E0A0E0B0E08483958354
:100B6000A683B78384E092E09183808385EC90E054
:100B70009587848784EC90E09787868780EC90E067
:100B8000918B808B81EC90E0938B828B82EC90E058
:100B9000958B848B86EC90E0978B868B118E128ED2
:100BA000138E148EE6ECF2E089E0868386E187837B
:100BB00081E084870895789484B5826084BD84B58B
:100BC000816084BD85B5826085BD85B5816085BD48
:100BD00080916E00816080936E0010928100809100
:100BE0008100826080938100809181008160809388
:100BF0008100809180008160809380008091B100AD
:100C000084608093B1008091B00081608093B000D7
:100C10008091910082608093910080919100816029
:100C200080939100809190008160809390008091EA
:100C3000A10082608093A1008091A10081608093D7
:100C4000A1008091A00081608093A000809121018B
:100C50008260809321018091210181608093210134
:100C60008091200181608093200180917A008460CE
:100C700080937A0080917A00826080937A008091DC
:100C80007A00816080937A0080917A0080688093F6
:100C90007A001092C100E0913902F0913A0282E0AC
:100CA0008083E0913502F09136021082E0913702A4
:100CB000F091380280E1808310924102E0913D0280
:100CC000F0913E0286E08083E0913B02F0913C028D
:100CD000808180618083E0913B02F0913C028081C1
:100CE00088608083E0913B02F0913C0280818068C3
:100CF0008083E0913B02F0913C0280818F7D808374
:100D000061E088E00E945A0361E086E00E945A0395
:100D100061E083E00E945A0361E082E00E945A038E
:100D200080E4982EC3E0D0E002E010E0AA24A3946F
:100D3000B12C0E94E203882349F08091CD028B30D0
:100D400051F020F08551823008F4A0C060E070E0DE
:100D500080EC9FE707C06091C80270E090E080E0FF
:100D60000E948B0860931B0270931C0280931D02EB
:100D700090931E020E94E20380917B00877F809304
:100D80007B0090927C0080917A00806480937A004E
:100D900080917A0086FDFCCF609178007091790097
:100DA000072E000C880B990B0E948D0823E333E378
:100DB00043E151E40E94420920E030EC4FE754E463
:100DC0000E9419086B017C01C0922102D09222027C
:100DD000E0922302F092240220E030E040EA50E466
:100DE0000E94140887FF78C061E086E00E942C030F
:100DF00060E083E00E942C0360E082E00E942C030C
:100E0000B0922002A0921F0220E030E040EF51E4B7
:100E100060911B0270911C0280911D0290911E0234
:100E20000E943D0918160CF082C061E088E00E9423
:100E30002C03C0901F02D09020020D2C000CEE0855
:100E4000FF084AE0C701B601F7FE0DC06DE289E276
:100E500092E00E94FE0166277727CB016C197D097D
:100E60008E099F094AE00E94AE0442E050E062E130
:100E700072E089E292E00E94680168EE73E080E02F
:100E800090E00E94B0030E946B0253CFF090C80222
:100E90006F2D6F7770E090E080E00E948D0820E079
:100EA00030E040E853E40E9442092B013C0160918C
:100EB000C90270E090E080E00E948D08A3019201D9
:100EC0000E94A80720E030E040E251E40E941908A7
:100ED000F7FE48CF905846CF20E030E040EE50E497
:100EE000C701B6010E94140860E087FF10C086E0C9
:100EF0000E942C0361E083E00E942C0360E082E00A
:100F00000E942C031093200200931F027DCF86E0E5
:100F10000E942C0360E083E00E942C0361E082E0E9
:100F20000E942C03D0932002C0931F026DCFE0904B
:100F30001F02F090200260E088E00E942C03F194F0
:100F4000E194F108F0922002E0921F0272CF505813
:100F5000BB27AA270E94BF070C9403090E94F5082B
:100F600038F00E94FC0820F039F49F3F19F426F471
:100F70000C94F2080EF4E095E7FB0C94EC08E92FD2
:100F80000E94140958F3BA1762077307840795077C
:100F900020F079F4A6F50C9436090EF4E0950B2EAA
:100FA000BA2FA02D0B01B90190010C01CA01A001BB
:100FB0001124FF27591B99F0593F50F4503E68F116
:100FC0001A16F040A22F232F342F4427585FF3CF57
:100FD000469537952795A795F0405395C9F77EF428
:100FE0001F16BA0B620B730B840BBAF09150A1F071
:100FF000FF0FBB1F661F771F881FC2F70EC0BA0FF7
:10100000621F731F841F48F4879577956795B7957E
:10101000F7959E3F08F0B0CF9395880F08F0992779
:10102000EE0F9795879508950E94C80808F481E00F
:1010300008950E942D080C9403090E94FC0858F0A2
:101040000E94F50840F029F45F3F29F00C94EC0869
:1010500051110C9437090C94F2080E94140968F39A
:101060009923B1F3552391F3951B550BBB27AA2761
:1010700062177307840738F09F5F5F4F220F331F9B
:10108000441FAA1FA9F335D00E2E3AF0E0E832D063
:1010900091505040E695001CCAF72BD0FE2F29D066
:1010A000660F771F881FBB1F261737074807AB0738
:1010B000B0E809F0BB0B802DBF01FF2793585F4FAD
:1010C0003AF09E3F510578F00C94EC080C943709E7
:1010D0005F3FE4F3983ED4F3869577956795B7958F
:1010E000F7959F5FC9F7880F911D9695879597F99A
:1010F0000895E1E0660F771F881FBB1F6217730713
:101100008407BA0720F0621B730B840BBA0BEE1F27
:1011100088F7E0950895E89409C097FB3EF4909510
:101120008095709561957F4F8F4F9F4F9923A9F0C0
:10113000F92F96E9BB279395F6958795779567954F
:10114000B795F111F8CFFAF4BB0F11F460FF1BC093
:101150006F5F7F4F8F4F9F4F16C0882311F096E926
:1011600011C0772321F09EE8872F762F05C06623D4
:1011700071F096E8862F70E060E02AF09A95660F8D
:10118000771F881FDAF7880F9695879597F9089546
:10119000990F0008550FAA0BE0E8FEEF1616170688
:1011A000E807F907C0F012161306E407F50798F0F0
:1011B000621B730B840B950B39F40A2661F0232B09
:1011C000242B252B21F408950A2609F4A140A69585
:1011D0008FEF811D811D089597F99F6780E870E06A
:1011E00060E008959FEF80EC089500240A9416169D
:1011F000170618060906089500240A941216130605
:10120000140605060895092E0394000C11F4882392
:1012100052F0BB0F40F4BF2B11F460FF04C06F5FAE
:101220007F4F8F4F9F4F089557FD9058440F551F84
:1012300059F05F3F71F04795880F97FB991F61F058
:101240009F3F79F087950895121613061406551FCF
:10125000F2CF4695F1DF08C0161617061806991F3B
:10126000F1CF86957105610508940895E894BB2730
:1012700066277727CB0197F908950E94C80808F4DC
:101280008FEF08950E9455090C9403090E94F508F8
:1012900038F00E94FC0820F0952311F00C94EC0823
:1012A0000C94F20811240C9437090E94140970F36D
:1012B000959FC1F3950F50E0551F629FF001729FFB
:1012C000BB27F00DB11D639FAA27F00DB11DAA1F0A
:1012D000649F6627B00DA11D661F829F2227B00D57
:1012E000A11D621F739FB00DA11D621F839FA00DE2
:1012F000611D221F749F3327A00D611D231F849F32
:10130000600D211D822F762F6A2F11249F57504088
:101310009AF0F1F088234AF0EE0FFF1FBB1F661F03
:10132000771F881F91505040A9F79E3F510580F0CC
:101330000C94EC080C9437095F3FE4F3983ED4F327
:10134000869577956795B795F795E7959F5FC1F770
:10135000FE2B880F911D9695879597F90895A1E228
:101360001A2EAA1BBB1BFD010DC0AA1FBB1FEE1F1F
:10137000FF1FA217B307E407F50720F0A21BB30B6A
:10138000E40BF50B661F771F881F991F1A9469F7E6
:1013900060957095809590959B01AC01BD01CF0142
:1013A0000895EE0FFF1F881F8BBF0790F691E02D69
:0613B0001994F894FFCF30
:1013B60000000000FE01680195014B02C601A40170
:0613C600B8010D0A000051
:00000001FF
