:100000000C9428010C9459010C9459010C94590139
:100010000C9459010C9459010C9459010C945901F8
:100020000C9459010C9459010C9459010C945901E8
:100030000C9459010C9459010C9459010C945901D8
:100040000C9459010C9459010C9459010C945901C8
:100050000C9459010C9459010C9459010C94870388
:100060000C9459010C94FB030C94D1030C9459018A
:100070000C9459010C9459010C9459010C94590198
:100080000C9459010C9459010C9459010C94590188
:100090000C9459010C9459010C9459010C94590178
:1000A0000C9459010C9459010C9459010C94590168
:1000B0000C9459010C9459010C9459010C94590158
:1000C0000C9459010C9459010C9459010C94590148
:1000D0000C9459010C9459010C9459010C94590138
:1000E0000C9459010C9441030C946A030C944E0334
:1000F0000C94B6010C949D020C9462030C944A0378
:100100000C9450020C9466030C945C030C94D2057E
:100110000C943D030C9439030C947A010C947403F1
:100120000C9458030C9454030C9423030C9418025D
:100130000C9444030C941E030C9435030C9470032C
:100140000C94A7010C94CA0100000A0B02090C0DC3
:100150000E0807030401000000000000000000007A
:10016000000000000000000000000000000000008F
:10017000000000001211100000000000000000004C
:10018000000000000000000000000000000000006F
:100190002200250028002B002E003100340002012F
:1001A0000000050108010B010000210024002700C8
:1001B0002A002D0030003300010100000401070176
:1001C0000A010505050507050808080802020202DC
:1001D0000A0A0808040404040101010101010101E3
:1001E0000303030303030303040707070C0C0C0CAE
:1001F0000C0C0C0C02020202060606060606060697
:100200000B0B0B0B0B0B0B0B010210202008081023
:100210002040102040800201020108040201010276
:10022000040810204080804020100804020180044F
:1002300002018040201008040201080402010102AA
:100240000408102040800102040810204080D205DC
:1002500011241FBECFEFD1E2DEBFCDBF00E00CBF47
:1002600022E0A6E2B2E001C01D92AC3CB207E1F789
:1002700012E0A0E0B2E0EAE8FCE000E00BBF02C060
:1002800007900D92A632B107D9F711E0C8E2D1E08C
:1002900000E006C021970109802FFE010E943B0665
:1002A000C732D10780E00807A9F70E9431040C94F7
:1002B00043060C94000090E0FC01E85FFD4F2491A0
:1002C0008E539E4FFC018491882399F090E0880F13
:1002D000991FFC01E855FE4FA591B491FC01E2572E
:1002E000FE4F859194918FB7F894EC91E22BEC93AB
:1002F0008FBF0895AF92BF92CF92DF92EF92FF929D
:100300000F931F93CF93DF936C017B018B01040F3D
:10031000151FEB015E01AE18BF08C017D10759F0D9
:100320006991D601ED91FC910190F081E02DC6011B
:100330001995892B79F7C501DF91CF911F910F9105
:10034000FF90EF90DF90CF90BF90AF900895FC01A9
:10035000538D448D252F30E0842F90E0821B930B2A
:10036000541710F0CF96089501970895FC01918DD0
:10037000828D981761F0A28DAE0FBF2FB11D5D96D3
:100380008C91928D9F5F9F73928F90E008958FEF75
:100390009FEF0895FC01918D828D981731F0828D29
:1003A000E80FF11D858D90E008958FEF9FEF089580
:1003B0002FB7F89480912B0290912C02A0912D02DE
:1003C000B0912E022FBF8093370290933802A093F2
:1003D0003902B0933A028FE292E00E94CA0197FF7D
:1003E00026C02FB7F89480912B0290912C02A091F7
:1003F0002D02B0912E022FBF40913702509138024A
:100400006091390270913A02841B950BA60BB70BD1
:10041000409133025091340260913502709136025E
:1004200084179507A607B707B0F28FEF9FEF0895DF
:10043000FC01918D228D892F90E0805C9F4F821B63
:1004400091098F73992708958FE292E00E94180214
:1004500021E0892B09F420E0822F0895FC01A48D6E
:10046000A80FB92FB11DA35ABF4F2C91848D90E0D6
:1004700001968F739927848FA689B7892C93A089B9
:10048000B1898C91837080648C93938D848D981343
:1004900006C00288F389E02D80818F7D80830895D6
:1004A000EF92FF920F931F93CF93DF93EC0181E0C4
:1004B000888F9B8D8C8D98131AC0E889F98980816B
:1004C00085FF15C09FB7F894EE89FF896083E8899E
:1004D000F98980818370806480839FBF81E090E090
:1004E000DF91CF911F910F91FF90EF900895F62E1D
:1004F0000B8D10E00F5F1F4F0F731127E02E8C8DB7
:100500008E110CC00FB607FCFACFE889F9898081FB
:1005100085FFF5CFCE010E942E02F1CFEB8DEC0FBF
:10052000FD2FF11DE35AFF4FF0829FB7F8940B8F18
:10053000EA89FB8980818062CFCFCF93DF93EC0182
:10054000888D8823B9F0AA89BB89E889F9898C91BB
:1005500085FD03C0808186FD0DC00FB607FCF7CF77
:100560008C9185FFF2CF808185FFEDCFCE010E9477
:100570002E02E9CFDF91CF91089580E090E0892BA2
:1005800029F00E94240281110E94000080E090E086
:10059000892B49F080E090E0892B29F00E9400002F
:1005A00081110E94000080E090E0892B49F080E0FA
:1005B00090E0892B29F00E94000081110E94000028
:1005C00080E090E0892B49F080E090E0892B29F0D1
:1005D0000E94000081110C9400000895282F30E043
:1005E000F901E85BFE4F9491F901E85FFD4F4491FA
:1005F0002E533E4FF9012491222309F435C099234B
:1006000011F191509231F8F4E92FF0E08827E45F7E
:10061000FC4F8F4F0C943B063D0341031E033503F3
:100620003903230344034A034E03540358035C0372
:100630006203660323036A037003740380918000DE
:100640008F7780938000E22FF0E0EE0FFF1FE257DC
:10065000FE4FA591B4918FB7F894EC91611148C009
:1006600040954E234C938FBF0895809180008F7DDD
:10067000E8CF80918000877FE4CF84B58F7784BDF9
:10068000E2CF84B58F7DFBCF8091B0008F778093D0
:10069000B000D9CF8091B0008F7DF9CF80919000CC
:1006A0008F7780939000CFCF809190008F7DF9CF8E
:1006B00080919000877FF5CF8091A0008F77809305
:1006C000A000C1CF8091A0008F7DF9CF8091A000C4
:1006D000877FF5CF809120018F7780932001B3CF62
:1006E000809120018F7DF9CF80912001877FF5CF08
:1006F0004E2BB8CFFC0101900020E9F73197AF01F4
:10070000481B590BBC018FE292E00C947A011F92B6
:100710000F920FB60F9211242F933F938F939F93B5
:10072000AF93BF9380912B0290912C02A0912D0248
:10073000B0912E0230912A0223E0230F2D3758F575
:100740000196A11DB11D20932A0280932B02909344
:100750002C02A0932D02B0932E028091260290913C
:100760002702A0912802B09129020196A11DB11D76
:100770008093260290932702A0932802B093290227
:10078000BF91AF919F918F913F912F910F900FBE8D
:100790000F901F90189526E8230F0296A11DB11DFA
:1007A000D2CF1F920F920FB60F9211240BB60F9259
:1007B0002F933F934F935F936F937F938F939F9369
:1007C000AF93BF93EF93FF938FE292E00E942E02CC
:1007D000FF91EF91BF91AF919F918F917F916F9119
:1007E0005F914F913F912F910F900BBE0F900FBED5
:1007F0000F901F9018951F920F920FB60F92112411
:100800000BB60F922F938F939F93EF93FF93E091EB
:100810003F02F09140028081E0914502F091460252
:1008200082FD1DC09081809148028F5F8F7320915F
:100830004902821741F0E0914802F0E0E15DFD4F8E
:10084000958F80934802FF91EF919F918F912F9107
:100850000F900BBE0F900FBE0F901F9018958081C8
:10086000F2CFCF93DF93CDB7DEB7A1970FB6F89451
:10087000DEBF0FBECDBF789484B5826084BD84B5E1
:10088000816084BD85B5826085BD85B5816085BD8B
:1008900080916E00816080936E0010928100809143
:1008A00081008260809381008091810081608093CB
:1008B0008100809180008160809380008091B100F0
:1008C00084608093B1008091B00081608093B0001B
:1008D000809191008260809391008091910081606D
:1008E000809391008091900081608093900080912E
:1008F000A10082608093A1008091A100816080931B
:10090000A1008091A00081608093A00080912101CE
:100910008260809321018091210181608093210177
:100920008091200181608093200180917A00846011
:1009300080937A0080917A00826080937A0080911F
:100940007A00816080937A0080917A008068809339
:100950007A001092C100E0913F02F091400282E0E3
:100960008083E0913B02F0913C021082E0913D02D5
:10097000F0913E0280E1808310924702E0914302B1
:10098000F091440286E08083E0914102F0914202BE
:10099000808180618083E0914102F09142028081F8
:1009A00088608083E0914102F091420280818068FA
:1009B0008083E0914102F091420280818F7D8083AB
:1009C00088E00E945B0186E00E945B0183E00E9458
:1009D0005B0182E00E945B018AE0882E912CA12CB1
:1009E000B12C8FE292E00E941802892B09F483C097
:1009F0000E94D801FC0197FDAAC08D32910521F01B
:100A0000C0970A9708F09CC0C12CD12C760110E049
:100A1000E130F105D9F0ED32F10509F496C0CF01CE
:100A2000C0970A9798F4AAE0B0E0A70196010E9447
:100A3000FF056F01FF0FEE08FF08C60ED71EE81E68
:100A4000F91E80E3C81AD108E108F1088FE292E0AC
:100A50000E94B6010E94D801FC01C0970A97C0F21B
:100A6000E130F105A9F2112341F0F094E094D09423
:100A7000C094C11CD11CE11CF11CC114D104D9F1DA
:100A8000D0920102C092000284E192E00E947A03B7
:100A9000C0900002D09001020D2C000CEE08FF085F
:100AA000F7FE59C06DE28FE292E00E9450022227C9
:100AB0003327A9012C193D094E095F0919A2FE012E
:100AC000B1967F01CA01B901A50194010E941906DE
:100AD000605DF70162937F012115310541055105E4
:100AE00089F7E114F10419F0C7010E947A0383E247
:100AF00092E00E947A03E0900002F0900102C701A8
:100B0000F7FE04C0882799278E199F098130910527
:100B1000C1F561E086E00E94EE0260E083E00E94A1
:100B2000EE0260E082E00E94EE0261E01E141F040B
:100B30000CF060E088E00E94EE020E94BD0251CFFE
:100B40008FE292E00E94B60153CF11E07FCFC12C1B
:100B5000D12C760192CFA701960119A2CE018196E0
:100B60007C01CA01B901A50194010E941906605DCA
:100B7000F70162937F01211531054105510589F780
:100B8000B0CF60E0029729F486E00E94EE0261E0B7
:100B9000C5CF86E00E94EE0260E083E00E94EE0294
:100BA00061E0C0CFEFE2F2E01382128288EE93E0C0
:100BB000A0E0B0E084839583A683B78386E092E0CB
:100BC0009183808385EC90E09587848784EC90E026
:100BD0009787868780EC90E0918B808B81EC90E00A
:100BE000938B828B82EC90E0958B848B86EC90E0EB
:100BF000978B868B118E128E138E148E08950E9401
:100C00000A06A59F900DB49F900DA49F800D911D85
:100C100011240895A29FB001B39FC001A39F700D3E
:100C2000811D1124911DB29F700D811D1124911DF4
:100C30000895A1E21A2EAA1BBB1BFD010DC0AA1F1D
:100C4000BB1FEE1FFF1FA217B307E407F50720F035
:100C5000A21BB30BE40BF50B661F771F881F991FB0
:100C60001A9469F760957095809590959B01AC01F9
:100C7000BD01CF010895EE0FFF1F881F8BBF0790A6
:0A0C8000F691E02D1994F894FFCFCF
:100C8A00FFFF0000000050027A01A7019D0218022E
:100C9A00B601CA01526563696269646F206D736740
:060CAA003A20000D0A00D3
:00000001FF
